{
  "transactions": [
    {
      "hash": "0xb1f4916c3279409300a5b9967996dea05c13f68dafb2bea395a6dd83f7133edb",
      "transactionType": "CALL",
      "contractName": null,
      "contractAddress": "0x0000000071727de22e5e9d8baf0edac6f37da032",
      "function": "depositTo(address)",
      "arguments": [
        "0xB79afD62C3616d0170C0E32F43011CA25e4C3E29"
      ],
      "transaction": {
        "from": "0xc7fbbc191ce9be67a352b1f2ecbef62e52933943",
        "to": "0x0000000071727de22e5e9d8baf0edac6f37da032",
        "gas": "0xf606",
        "value": "0xb1a2bc2ec50000",
        "input": "0xb760faf9000000000000000000000000b79afd62c3616d0170c0e32f43011ca25e4c3e29",
        "nonce": "0x2a",
        "chainId": "0xaa36a7"
      },
      "additionalContracts": [],
      "isFixedGasLimit": false
    }
  ],
  "receipts": [
    {
      "status": "0x1",
      "cumulativeGasUsed": "0x2987f7f",
      "logs": [
        {
          "address": "0x0000000071727de22e5e9d8baf0edac6f37da032",
          "topics": [
            "0x2da466a7b24304f47e87fa2e1e5a81b9831ce54fec19055ce277ca2f39ba42c4",
            "0x000000000000000000000000b79afd62c3616d0170c0e32f43011ca25e4c3e29"
          ],
          "data": "0x00000000000000000000000000000000000000000000000000b1a2bc2ec50000",
          "blockHash": "0xbaf3c34f3387addc44af3c941b6ef9b3f590fb8f2024dfea249ef516ec05e14a",
          "blockNumber": "0x87d4de",
          "blockTimestamp": "0x688efcb4",
          "transactionHash": "0xb1f4916c3279409300a5b9967996dea05c13f68dafb2bea395a6dd83f7133edb",
          "transactionIndex": "0x391",
          "logIndex": "0xa4",
          "removed": false
        }
      ],
      "logsBloom": "0x00000000000000000000000000000000000000000000000000000000000000000000000000000000000000000000000000000000000000000000000000000000000000000000000000000000010000000040000000000000000000000000201000000000000800000000000000000000000000000000000000000000000200000800000000000000000000000000000000000000000000000000000000000000000000000000000000000000000000000000000000000000000000000000000000000000000000400000000000000000000000000000000000000000000000000040000000000000000000000000000000000000000000000000000000000000",
      "type": "0x2",
      "transactionHash": "0xb1f4916c3279409300a5b9967996dea05c13f68dafb2bea395a6dd83f7133edb",
      "transactionIndex": "0x391",
      "blockHash": "0xbaf3c34f3387addc44af3c941b6ef9b3f590fb8f2024dfea249ef516ec05e14a",
      "blockNumber": "0x87d4de",
      "gasUsed": "0xb21f",
      "effectiveGasPrice": "0x297418",
      "from": "0xc7fbbc191ce9be67a352b1f2ecbef62e52933943",
      "to": "0x0000000071727de22e5e9d8baf0edac6f37da032",
      "contractAddress": null
    }
  ],
  "libraries": [],
  "pending": [],
  "returns": {},
  "timestamp": 1754201269,
  "chain": 11155111,
  "commit": "a562c98"
}