{
  "transactions": [
    {
      "hash": "0xa1f9aaff45c884a16e13f8dc14f4f1d05f30c6466465c89396360eee85a0bab0",
      "transactionType": "CALL",
      "contractName": null,
      "contractAddress": "0xb79afd62c3616d0170c0e32f43011ca25e4c3e29",
      "function": "addToken(address,uint256)",
      "arguments": [
        "0xB645e665cDa3623B578FC62D1Dd5F0E2ed94eD42",
        "1000"
      ],
      "transaction": {
        "from": "0xc7fbbc191ce9be67a352b1f2ecbef62e52933943",
        "to": "0xb79afd62c3616d0170c0e32f43011ca25e4c3e29",
        "gas": "0x185fd",
        "value": "0x0",
        "input": "0xaf81c5b9000000000000000000000000b645e665cda3623b578fc62d1dd5f0e2ed94ed4200000000000000000000000000000000000000000000000000000000000003e8",
        "nonce": "0x25",
        "chainId": "0xaa36a7"
      },
      "additionalContracts": [],
      "isFixedGasLimit": false
    }
  ],
  "receipts": [
    {
      "status": "0x1",
      "cumulativeGasUsed": "0x145cdc1",
      "logs": [
        {
          "address": "0xb79afd62c3616d0170c0e32f43011ca25e4c3e29",
          "topics": [
            "0xf4c563a3ea86ff1f4275e8c207df0375a51963f2b831b7bf4da8be938d92876c",
            "0x000000000000000000000000b645e665cda3623b578fc62d1dd5f0e2ed94ed42"
          ],
          "data": "0x00000000000000000000000000000000000000000000000000000000000003e8",
          "blockHash": "0xcf301084326b8f4f3dfa6e5aff4f6678714c0586b59322f2107f8372b9e7ff29",
          "blockNumber": "0x87d4bc",
          "blockTimestamp": "0x688efb1c",
          "transactionHash": "0xa1f9aaff45c884a16e13f8dc14f4f1d05f30c6466465c89396360eee85a0bab0",
          "transactionIndex": "0x95",
          "logIndex": "0x103",
          "removed": false
        }
      ],
      "logsBloom": "0x00000000000000000000000000000000000000000000000000000000000000000000000000000000000000000000000000000000000080000000000000400000002000000000100000000000000000000000000000000000000000000000000000000000000000000000000000000000000000000000000000000000020000000000000000000000000000000000000000000000000000000000000000000000000000000000000000000000000000000000000000000000004000000000000000020000000000000000000000000000000000000000000010000000000000000000000000000000000000000000000008000000000000000000000000000000",
      "type": "0x2",
      "transactionHash": "0xa1f9aaff45c884a16e13f8dc14f4f1d05f30c6466465c89396360eee85a0bab0",
      "transactionIndex": "0x95",
      "blockHash": "0xcf301084326b8f4f3dfa6e5aff4f6678714c0586b59322f2107f8372b9e7ff29",
      "blockNumber": "0x87d4bc",
      "gasUsed": "0x10aa9",
      "effectiveGasPrice": "0x2602f4",
      "from": "0xc7fbbc191ce9be67a352b1f2ecbef62e52933943",
      "to": "0xb79afd62c3616d0170c0e32f43011ca25e4c3e29",
      "contractAddress": null
    }
  ],
  "libraries": [],
  "pending": [],
  "returns": {},
  "timestamp": 1754200860,
  "chain": 11155111,
  "commit": "a562c98"
}